:100000000C9470000C949F030C948D000C948D0044
:100010000C948D000C948D000C948D000C948D002C
:100020000C948D000C948D000C948D000C948D001C
:100030000C948D000C948D000C948D000C948D000C
:100040000C948D000C948D000C948D000C948D00FC
:100050000C948D001201010100000008C016DC277D
:100060000001010203010A033100300030003000BA
:1000700005010905A10105091901294015002501FE
:1000800075019540810205091901294015002501D6
:10009000750195408102C0040309042C0377006FA9
:1000A0000072006B00620065006E00630068002E45
:1000B0000066007200650065007400630070002E29
:1000C0000063006F006D0018037500730062005339
:1000D0000069006D0049006E00700075007400003A
:1000E00011241FBECFE5D4E0DEBFCDBF10E0A0E6F7
:1000F000B0E0E0EDF9E002C005900D92A839B1073B
:10010000D9F711E0A8E9B0E001C01D92A130B10714
:10011000E1F70E94F5000C94E6040C94000082E1E3
:1001200090E00895FC018081807641F581818630E0
:1001300029F583818230D1F0823269F0813001F576
:1001400080919E0090919F009093E6008093E5003F
:100150008091A000089580919B0090919C009093C5
:10016000E6008093E50080919D00089580E690E090
:100170009093E6008093E50082E2089580E0089580
:1001800080E00895FC0182EA90E09093E60080937D
:10019000E50080818076803221F58181813091F483
:1001A0001092A2001092A3001092A4001092A50039
:1001B0001092A6001092A7001092A8001092A90019
:1001C00088E00895823041F481EA90E09093E6005F
:1001D0008093E50081E008958A3029F4838180933B
:1001E000A10080E0089580E00895EF92FF920F93C0
:1001F0001F93DF93CF930F92CDB7DEB7B89A87B333
:10020000897F87BB88B3866088BBC0988FE295E7FB
:100210000197F1F700C0000086B30E943702FC018D
:1002200090939A00809399008481958190939C008B
:1002300080939B00828180939D00808591850097AB
:1002400031F090939F0080939E00868108C084E5E2
:1002500090E090939F0080939E000E948F00809377
:10026000A00080919D008093790014BA8FEF85BB28
:1002700088EF82BB85E081BB11BA83BF8FE085BD6B
:1002800084EC83BDE0919900F0919A000284F3859B
:10029000E02D09950E947903789410E081E0EE2426
:1002A000FF24F39400E803C0EE24E39480E0A895D3
:1002B00089830E9467028981882341F0E091990037
:1002C000F0919A000484F585E02D099508B600FEAA
:1002D0000CC0F8BE8091A100882339F0153010F0D1
:1002E000155003C0182FEE24E39408B607FE16C07D
:1002F00008BFEE20A9F4E0919900F0919A000484DF
:10030000F585E02D0995E0919900F0919A00068419
:10031000F785E02D0995882319F4C8CFEE2031F236
:100320008091D60084FFC0CFE0919900F0919A00AF
:100330000088F189E02D82EA90E0099502C00E94D0
:1003400067028091D60084FFFACF82EA90E068E0ED
:100350000E94400202C00E9467028091D60084FF82
:10036000FACF8AEA90E068E00E944002EE249ECF35
:10037000DF93CF93CDB7DEB760970FB6F894DEBFAB
:100380000FBECDBFFE013196DF0180E090E021E09D
:1003900030E06AB3A901082E02C0440F551F0A9429
:1003A000E2F7642B6ABB5BB3642F609556235BBB9B
:1003B000F89456B35C9353B311965C931197789469
:1003C0005BB3542B5BBB4AB346234ABB01961296E0
:1003D00088309105F1F6AAEAB0E0CE01419620817D
:1003E000209521932D93E817F907C9F760960FB66A
:1003F000F894DEBF0FBECDBFCF91DF9108951F935C
:100400001FB7F89417BA8FEF88BB14BA85BB1ABA16
:100410001BBA0E94B8011FBF1F910895009741F0B9
:10042000DC01EAEAF0E080E101900D928150E1F711
:10043000AAEBB0E0EAEAF0E080E101900D92815091
:10044000E1F708958091940090919500009731F024
:10045000109295001092940081E008958AEA90E04D
:100460006AEB70E040E150E00E94D904089580E713
:1004700090E0909387008093860082E890E0089552
:100480001F93162F2091D60024FF07C02091D7007C
:1004900038E823272093D70003C02AE52093D6000D
:1004A000DC01812F815090E087529F4FE8EDF0E012
:1004B0002D912193E817F907D9F788ED90E0612F86
:1004C0000E949B031C5F1093D6001F9108951F93F9
:1004D000CF93DF938091E700835087FDABC090916D
:1004E000E4002091E3002D3209F0A2C0883009F029
:1004F0009FC0CCE0D0E0C91BD109C551DF4F83ECD0
:100500008093CB008AE5809396001092CA00888180
:10051000807621F0CE010E94C20081C09A811092A3
:10052000D4008981882331F41092D50024ED30E085
:1005300082E071C0853019F49093E80069C086307C
:1005400009F050C08B81813009F442C0823029F417
:10055000CE010E94920090E042C0833061F5992361
:1005600049F487E990E09093E6008093E50090E4F9
:1005700084E035C0913049F48BE990E09093E60037
:100580008093E50090E48CE22AC0923049F487EC35
:1005900090E09093E6008093E50090E488E11FC02E
:1005A0009330D9F486E690E09093E6008093E500DE
:1005B00090E48CE014C0813249F48AEA90E0909390
:1005C000E6008093E50090E489E009C0823229F4D6
:1005D000CE010E94920090E402C090E480E09093EB
:1005E000CA001DC0883069F0893019F49093EA0080
:1005F0000FC08A3049F08B3059F48BE48093D700D8
:1006000007C02AEE30E002C024ED30E081E003C0F4
:1006100024ED30E080E03093E6002093E5009F81F8
:10062000992321F49E81981708F4892F80939700CD
:100630001092E7008091960084FF4DC08091970052
:100640008F3F09F448C0182F893008F018E0811B4B
:10065000809397008091CB0098E889278093CB0006
:10066000112361F18091E5009091E6003091CA007C
:10067000212F215036FF0EC030E0A90143535F4FB8
:10068000FC01ACECB0E064916D933196A417B50712
:10069000D1F70CC0DC0130E0A90143535F4FECEC13
:1006A000F0E06D916193E417F507D9F72F5F3F4FA5
:1006B000280F391F3093E6002093E5008CEC90E082
:1006C000612F0E949B031C5F1C3019F08FEF8093F9
:1006D00097001093960084E190B3937031F48150A9
:1006E000D9F71092E8001092E200DF91CF911F91AC
:1006F000089585B7826085BF8BB780648BBF8BE41C
:100700008093D7008AE58093D6000895A82FB92F4B
:1007100080E090E041E050EA609530E009C02D9122
:1007200082279795879510F084279527305EC8F328
:100730006F5FA8F30895EADF8D939D930895CF939B
:10074000CFB7CF93C395809BE9F7809B09C0809B6F
:1007500007C0809B05C0809B03C0809B01C0A3C0D5
:10076000DF93C091E400DD27C551DF4F809B02C0BD
:10077000DF91EBCF2F930F931F9300B32FEF00FB6D
:1007800020F94F933F9310B34FEF012700FB21F95E
:100790003BE031C04E7F012F10B3216028C0102FE5
:1007A0004D7F2260000000B329C04B7F2460012FE1
:1007B000000010B32BC010B3477F28602AC04F7EC3
:1007C00000B320612CC04F7D10B320622FC04F7B3F
:1007D00000B3206432C0422700B349934FEF0000BA
:1007E000102710FB20F910B31370C9F1297F91F283
:1007F000012700FB21F900B3237F89F2315058F122
:10080000102710FB22F910B3277E79F2012700FB95
:1008100023F92F7C81F200B3102710FB24F92F79E4
:1008200071F200C010B3012700FB25F92F7359F2B4
:1008300000C000B3102710FB26F9223040F200C0A0
:1008400010B3012700FB27F9243028F64F772068E2
:1008500010B30000F9CF10E41ABF002719C03B50B5
:100860003195C31BD04010E41ABF0881033CF9F056
:100870000B34E9F02091E2001981110F1213EDCF32
:100880004A81441F093641F10D3211F0013E29F72A
:100890000093E9003F914F911F910F912F91DF91AC
:1008A000CAB7C6FD4FCFCF91CFBFCF91189520913A
:1008B000E900222379F31091E700112369F5343020
:1008C0006AF13093E7002093E3001091E4003BE0ED
:1008D000311B3093E40022C00091E7000130E4F4C2
:1008E0000AE54F7049F43091960034FD19C0009329
:1008F0009600CBECD0E018C03091D60034FD10C08B
:100900000093D600C7EDD0E00FC02795A8F4515052
:10091000A9F4220F0000F9CF4AE503C042ED01C05F
:10092000432FC4E1D0E032E011B31360909A11BBC1
:1009300002B320E413E05F93012756E002BB279542
:1009400020F4515021F4220FF9CF012756E0000086
:100950003B5A02BBD0F2279528F4515029F4220FBC
:100960000000F9CF012756E0279502BB20F4515033
:1009700021F4220FF9CF012756E02991332302BB3E
:1009800021F60C7F1091E800110FC651D04002BB38
:1009900011F01093E20010E41ABF016011B31C7F44
:1009A000402F4C7F5F9100C000C002BB11BB42BB17
:1009B00071CFFB01DC0104C08D910190801921F4FD
:1009C00041505040C8F7881B990B0895F894FFCF09
:1009D00009022200010100003209040000010300A5
:1009E0000000092101010001220000070581030820
:1009F000000A10002700000000000000FF01B801FD
:080A000022020E0201005AFF60
:00000001FF
