:100000000C9474000C9457020C9491000C94910081
:100010000C9491000C9491000C9491000C9491001C
:100020000C9491000C9491000C9491000C9491000C
:100030000C9491000C9491000C9491000C949100FC
:100040000C9491000C9491000C9491000C949100EC
:100050000C94910005010905A101050919012980E8
:1000600015002501750195808102C0040309042C47
:100070000377006F0072006B00620065006E006322
:100080000068002E00660072006500650074006361
:100090000070002E0063006F006D00180375007380
:1000A000006200530069006D0049006E0070007529
:1000B0000074001201100100000008C016DC2700C7
:1000C000010102000109022200010100803209043D
:1000D00000000103000000092101010001221700B6
:1000E000070581030800640011241FBECFE5D4E09A
:1000F000DEBFCDBF10E0A0E6B0E0E6E2F7E002C070
:1001000005900D92A236B107D9F710E0A2E6B0E053
:1001100001C01D92AD39B107E1F70E94C7000C94F0
:1001200091030C940000FC0180818076803211F0F4
:1001300080E008958181813011F080E00895809100
:100140006200882311F01092620083E690E09093A1
:1001500082008093810081E008958091720084FF85
:100160000BC080916200882311F01092620083E638
:1001700090E061E00E94D700089581E080936200E2
:10018000089508958FE081BD0895A89508951F935F
:100190008FE081BD0E9431028898789411E0A89583
:1001A000109362000E94AD000E94FF00F8CF1F93E1
:1001B000162F2091720024FF1EC02091730038E892
:1001C000232720937300A82FB92F812F815090E00F
:1001D0008B589F4FE4E7F0E02D912193E817F90742
:1001E000D9F784E790E0612F0E9453021C5F1093BF
:1001F00072001F9108952AE520937200E4CF1F93A7
:10020000CF93DF9380918300835087FD09C02091B5
:10021000800090917F009D3209F44EC010928300BF
:100220008091600084FF3AC0609161006F3FB1F13E
:10023000693008F46FC06850609361008091670076
:1002400098E88927809367001CE068E0209181008E
:10025000309182008091640086FF73C0462F415028
:1002600050E0CA0187599F4FF901A8E6B0E07491A8
:100270007D933196A817B907D1F74F5F5F4F420FB3
:10028000531F509382004093810088E690E00E94C3
:1002900053021C3009F04FC01093600094E180B30A
:1002A000837031F49150D9F71092840010927E003F
:1002B000DF91CF911F910895883009F0AFCFCCE046
:1002C000D0E0C21BD109C957DF4F83EC8093670090
:1002D0008AE580936000109264008881807609F03E
:1002E0003FC09A811092700089818823E9F51092AD
:1002F000710020E730E082E030938200209381009B
:100300009F81992321F49E81981708F4892F809367
:10031000610084CF109261008091670098E889277E
:1003200080936700662309F084C088E690E060E06F
:100330000E94530214E08FEF8093610010936000DD
:10034000ADCFD901462F415050E0CA0187599F4F88
:10035000E8E6F0E07D917193E817F907D9F78DCFC2
:10036000CE010E949300CCCF853071F0863091F0A1
:10037000883001F1893011F18A3071F18B3081F1CF
:1003800020E730E080E0B8CF9093840020E730E0B1
:1003900080E0B2CF8B818130B9F0823091F183302F
:1003A00031F18132F1F18232A1F180E090E4909359
:1003B0006400A6CF26E830E081E09ECF90938600CF
:1003C00020E730E080E098CF83EB90E090938200CC
:1003D0008093810082E1EACF20E730E081E08CCF9A
:1003E0008BE48093730020E730E080E085CF992391
:1003F00019F58BE690E0909382008093810084E071
:10040000D5CF85EC90E0909382008093810082E2CA
:10041000CDCF84E590E0909382008093810087E1C6
:10042000C5CF87ED90E0909382008093810089E0B2
:10043000BDCF162F1C5F0ACF913059F0923009F0D2
:10044000B4CF8BE990E0909382008093810088E1A3
:10045000ADCF8FE690E090938200809381008CE294
:10046000A5CF85B7826085BF8BB780648BBF8BE4D7
:10047000809373008AE5809372000895A82FB92FA6
:1004800080E090E041E050EA609530E009C02D91B5
:1004900082279795879510F084279527305EC8F3BB
:1004A0006F5FA8F30895EADF8D939D930895CF932E
:1004B000CFB7CF93C395809BE9F7809B09C0809B02
:1004C00007C0809B05C0809B03C0809B01C0A3C068
:1004D000DF93C0918000DD27C957DF4F809B02C0AA
:1004E000DF91EBCF2F930F931F9300B32FEF00FB00
:1004F00020F94F933F9310B34FEF012700FB21F9F1
:100500003BE031C04E7F012F10B3216028C0102F77
:100510004D7F2260000000B329C04B7F2460012F73
:10052000000010B32BC010B3477F28602AC04F7E55
:1005300000B320612CC04F7D10B320622FC04F7BD1
:1005400000B3206432C0422700B349934FEF00004C
:10055000102710FB20F910B31370C9F1297F91F215
:10056000012700FB21F900B3237F89F2315058F1B4
:10057000102710FB22F910B3277E79F2012700FB28
:1005800023F92F7C81F200B3102710FB24F92F7977
:1005900071F200C010B3012700FB25F92F7359F247
:1005A00000C000B3102710FB26F9223040F200C033
:1005B00010B3012700FB27F9243028F64F77206875
:1005C00010B30000F9CF10E41ABF002719C03B5048
:1005D0003195C31BD04010E41ABF0881033CF9F0E9
:1005E0000B34E9F020917E001981110F1213EDCF29
:1005F0004A81441F093641F10D3211F0013E29F7BD
:10060000009385003F914F911F910F912F91DF91A2
:10061000CAB7C6FD4FCFCF91CFBFCF9118952091CC
:100620008500222379F310918300112369F534307A
:100630006AF13093830020937F00109180003BE0AB
:10064000311B3093800022C0009183000130E4F41C
:100650000AE54F7049F43091600034FD19C00093F1
:100660006000C7E6D0E018C03091720034FD10C0C1
:1006700000937200C3E7D0E00FC02795A8F4515053
:10068000A9F4220F0000F9CF4AE503C042ED01C0F2
:10069000432FC4E1D0E032E011B31360909A11BB54
:1006A00002B320E413E05F93012756E002BB2795D5
:1006B00020F4515021F4220FF9CF012756E0000019
:1006C0003B5A02BBD0F2279528F4515029F4220F4F
:1006D0000000F9CF012756E0279502BB20F45150C6
:1006E00021F4220FF9CF012756E02991332302BBD1
:1006F00021F60C7F10918400110FC651D04002BB2F
:1007000011F010937E0010E41ABF016011B31C7F3A
:10071000402F4C7F5F9100C000C002BB11BB42BBA9
:0607200071CFF894FFCF39
:020726005AFF78
:00000001FF
