:100000000C9468000C9484030C9485000C94850077
:100010000C9485000C9485000C9485000C9485004C
:100020000C9485000C9485000C9485000C9485003C
:100030000C9485000C9485000C9485000C9485002C
:100040000C9485000C9485000C9485000C9485001C
:100050000C9485001201010100000008C016DC2785
:100060000001010203010A033100300030003000BA
:1000700005010905A10105091901294015002501FE
:10008000750195408102C0040309042C0377006FB9
:100090000072006B00620065006E00630068002E55
:1000A0000066007200650065007400630070002E39
:1000B0000063006F006D0018037500730062005349
:1000C0000069006D0049006E00700075007400004A
:1000D00011241FBECFE5D4E0DEBFCDBF10E0A0E607
:1000E000B0E0EAE9F9E002C005900D92A839B10745
:1000F000D9F710E0A8E9B0E001C01D92AF3EB1070A
:10010000E1F70E94E9000C94CB040C94000082E11A
:1001100090E00895FC018081807641F581818630F0
:1001200029F583818230D1F0823269F0813001F586
:1001300080919E0090919F009093D4008093D30073
:100140008091A000089580919B0090919C009093D5
:10015000D4008093D30080919D00089580E690E0C4
:100160009093D4008093D30082E2089580E00895B4
:1001700080E00895FC0182EA90E09093D40080939F
:10018000D30020812076203201F52181213071F4C5
:10019000E0919900F0919A000088F189E02D09958D
:1001A000E0919900F0919A0080810895223041F405
:1001B00081EA90E09093D4008093D30081E0089589
:1001C0002A3029F483818093A10080E0089580E0A3
:1001D0000895EF92FF920F931F93DF93CF930F92A7
:1001E000CDB7DEB7B89A87B3897F87BB88B38660FF
:1001F00088BBC0988FE295E70197F1F700C0000037
:1002000086B30E941C02FC0190939A00809399008F
:100210008481958190939C0080939B008281809340
:100220009D0080859185009731F090939F00809389
:100230009E00868108C084E590E090939F008093A3
:100240009E000E9487008093A00080919D00809373
:10025000790014BA8FEF85BB88EF82BB85E081BB44
:1002600011BA83BF8FE085BD84EC83BDE091990016
:10027000F0919A000284F385E02D09950E945E03B7
:10028000789410E081E0EE24FF24F39400E803C0AA
:10029000EE24E39480E0A89589830E944C02898132
:1002A000882341F0E0919900F0919A000484F5854B
:1002B000E02D099508B600FE0CC0F8BE8091A100A3
:1002C000882339F0153010F0155003C0182FEE2494
:1002D000E39408B607FE16C008BFEE20A9F4E0912B
:1002E0009900F0919A000484F585E02D0995E0913C
:1002F0009900F0919A000684F785E02D09958823EE
:1003000019F4C8CFEE2031F28091C40084FFC0CF31
:10031000E0919900F0919A000088F189E02D82EA3D
:1003200090E00995E0919900F0919A0082EA90E0BE
:1003300060810E942502EE24ADCFDF93CF93CDB72D
:10034000DEB728970FB6F894DEBF0FBECDBFFE0113
:100350003196DF0180E090E021E030E06AB3A9014E
:10036000082E02C0440F551F0A94E2F7642B6ABBA3
:100370005BB3642F609556235BBBF89456B35C93D4
:1003800053B311965C93119778945BB3542B5BBB7A
:100390004AB346234ABB0196129684309105F1F682
:1003A000A8EAB0E0CE0109962081209521932D93F3
:1003B000E817F907C9F728960FB6F894DEBF0FBE05
:1003C000CDBFCF91DF9108951F931FB7F89417BA4F
:1003D0008FEF88BB14BA85BB1ABA1BBA0E949D0165
:1003E0001FBF1F910895009741F0DC01E8EAF0E09B
:1003F00088E001900D928150E1F7A0EBB0E0E8EACF
:10040000F0E088E001900D928150E1F7089580912D
:10041000940090919500009731F010929500109201
:10042000940081E0089588EA90E060EB70E048E095
:1004300050E00E94BE04089580E790E0909387000A
:100440008093860082E890E008951F93162F2091F4
:10045000C40024FF07C02091C50038E8232720935B
:10046000C50003C02AE52093C400DC01812F815020
:1004700090E089539F4FE6ECF0E02D912193E8172F
:10048000F907D9F786EC90E0612F0E9480031C5F8A
:100490001093C4001F9108951F93CF93DF93809111
:1004A000D500835087FDABC09091D2002091D10040
:1004B0002D3209F0A2C0883009F09FC0CCE0D0E016
:1004C000C91BD109C752DF4F83EC8093B9008AE57D
:1004D000809396001092B8008881807621F0CE013A
:1004E0000E94BA0081C09A811092C200898188233B
:1004F00031F41092C30022EC30E082E071C085300C
:1005000019F49093D60069C0863009F050C08B81F1
:10051000813009F442C0823029F4CE010E948A0061
:1005200090E042C0833061F5992349F487E890E078
:100530009093D4008093D30090E484E035C0913050
:1005400049F48BE890E09093D4008093D30090E43A
:100550008CE22AC0923049F487EB90E09093D4006B
:100560008093D30090E488E11FC09330D9F486E6ED
:1005700090E09093D4008093D30090E48CE014C07A
:10058000813249F48AEA90E09093D4008093D300BA
:1005900090E489E009C0823229F4CE010E948A00E9
:1005A00090E402C090E480E09093B8001DC08830D1
:1005B00069F0893019F49093D8000FC08A3049F05F
:1005C0008B3059F48BE48093C50007C028ED30E0F0
:1005D00002C022EC30E081E003C022EC30E080E099
:1005E0003093D4002093D3009F81992321F49E81DE
:1005F000981708F4892F809397001092D500809166
:10060000960084FF4DC0809197008F3F09F448C049
:10061000182F893008F018E0811B80939700809193
:10062000B90098E889278093B900112361F180917E
:10063000D3009091D4003091B800212F215036FF83
:100640000EC030E0A90145545F4FFC01AAEBB0E0B9
:1006500064916D933196A417B507D1F70CC0DC01F6
:1006600030E0A90145545F4FEAEBF0E06D916193F2
:10067000E417F507D9F72F5F3F4F280F391F309345
:10068000D4002093D3008AEB90E0612F0E94800376
:100690001C5F1C3019F08FEF809397001093960029
:1006A00084E190B3937031F48150D9F71092D60061
:1006B0001092D000DF91CF911F91089585B782608D
:1006C00085BF8BB780648BBF8BE48093C5008AE5C0
:1006D0008093C4000895A82FB92F80E090E041E0F6
:1006E00050EA609530E009C02D9182279795879553
:1006F00010F084279527305EC8F36F5FA8F3089544
:10070000EADF8D939D930895CF93CFB7CF93C39591
:10071000809BE9F7809B09C0809B07C0809B05C038
:10072000809B03C0809B01C0A3C0DF93C091D20017
:10073000DD27C752DF4F809B02C0DF91EBCF2F93A5
:100740000F931F9300B32FEF00FB20F94F933F93BC
:1007500010B34FEF012700FB21F93BE031C04E7F82
:10076000012F10B3216028C0102F4D7F22600000A0
:1007700000B329C04B7F2460012F000010B32BC0B1
:1007800010B3477F28602AC04F7E00B320612CC081
:100790004F7D10B320622FC04F7B00B3206432C066
:1007A000422700B349934FEF0000102710FB20F9B8
:1007B00010B31370C9F1297F91F2012700FB21F9D1
:1007C00000B3237F89F2315058F1102710FB22F932
:1007D00010B3277E79F2012700FB23F92F7C81F2E9
:1007E00000B3102710FB24F92F7971F200C010B369
:1007F000012700FB25F92F7359F200C000B3102721
:1008000010FB26F9223040F200C010B3012700FB94
:1008100027F9243028F64F77206810B30000F9CF6D
:1008200010E41ABF002719C03B503195C31BD040BC
:1008300010E41ABF0881033CF9F00B34E9F0209171
:10084000D0001981110F1213EDCF4A81441F0936D0
:1008500041F10D3211F0013E29F70093D7003F918D
:100860004F911F910F912F91DF91CAB7C6FD4FCFC6
:10087000CF91CFBFCF9118952091D700222379F344
:100880001091D500112369F534306AF13093D50009
:100890002093D1001091D2003BE0311B3093D20065
:1008A00022C00091D5000130E4F40AE54F7049F40C
:1008B0003091960034FD19C000939600C9EBD0E04A
:1008C00018C03091C40034FD10C00093C400C5ECC2
:1008D000D0E00FC02795A8F45150A9F4220F0000D2
:1008E000F9CF4AE503C042ED01C0432FC4E1D0E097
:1008F00032E011B31360909A11BB02B320E413E00D
:100900005F93012756E002BB279520F4515021F454
:10091000220FF9CF012756E000003B5A02BBD0F26C
:10092000279528F4515029F4220F0000F9CF012710
:1009300056E0279502BB20F4515021F4220FF9CF45
:10094000012756E02991332302BB21F60C7F109139
:10095000D600110FC651D04002BB11F01093D00049
:1009600010E41ABF016011B31C7F402F4C7F5F91D0
:1009700000C000C002BB11BB42BB71CFFB01DC0158
:1009800004C08D910190801921F441505040C8F766
:0A099000881B990B0895F894FFCF1F
:10099A0009022200010100003209040000010300DB
:1009AA000000092101010001220000070581030856
:1009BA00000A08001700000000000000E4019D0181
:0809CA000702F30101005AFFCE
:00000001FF
