:100000000C9470000C949C030C948D000C948D0047
:100010000C948D000C948D000C948D000C948D002C
:100020000C948D000C948D000C948D000C948D001C
:100030000C948D000C948D000C948D000C948D000C
:100040000C948D000C948D000C948D000C948D00FC
:100050000C948D001201010100000008C016DC277D
:100060000001010203010A033100300030003000BA
:1000700005010905A10105091901294015002501FE
:1000800075019540810205091901294015002501D6
:10009000750195408102C0040309042C0377006FA9
:1000A0000072006B00620065006E00630068002E45
:1000B0000066007200650065007400630070002E29
:1000C0000063006F006D0018037500730062005339
:1000D0000069006D0049006E00700075007400003A
:1000E00011241FBECFE5D4E0DEBFCDBF10E0A0E6F7
:1000F000B0E0EAECF9E002C005900D92A839B10732
:10010000D9F711E0A8E9B0E001C01D92A930B1070C
:10011000E1F70E94F5000C94E3040C94000082E1E6
:1001200090E00895FC018081807641F581818630E0
:1001300029F583818230D1F0823269F0813001F576
:1001400080919E0090919F009093EE008093ED002F
:100150008091A000089580919B0090919C009093C5
:10016000EE008093ED0080919D00089580E690E080
:100170009093EE008093ED0082E2089580E0089570
:1001800080E00895FC0182EA90E09093EE00809375
:10019000ED0080818076803221F58181813091F47B
:1001A0001092A2001092A3001092A4001092A50039
:1001B0001092A6001092A7001092A8001092A90019
:1001C00080E10895823041F481EA90E09093EE005E
:1001D0008093ED0081E008958A3029F48381809333
:1001E000A10080E0089580E00895EF92FF920F93C0
:1001F0001F93DF93CF930F92CDB7DEB7B89A87B333
:10020000897F87BB88B3866088BBC0988FE295E7FB
:100210000197F1F700C000000E943402FC019093A6
:100220009A00809399008481958190939C0080939B
:100230009B00828180939D0080859185009731F09D
:1002400090939F0080939E00868108C084E590E093
:1002500090939F0080939E000E948F008093A00047
:1002600080919D008093790014BA8FEF85BB88EF51
:1002700082BB85E081BB11BA83BF8FE085BD84EC72
:1002800083BDE0919900F0919A000284F385E02DFE
:1002900009950E947603789410E081E0EE24FF2413
:1002A000F39400E803C0EE24E39480E0A8958983EA
:1002B0000E9464028981882341F0E0919900F091C5
:1002C0009A000484F585E02D099508B600FE0CC05F
:1002D000F8BE8091A100882339F0153010F0155038
:1002E00003C0182FEE24E39408B607FE16C008BF1B
:1002F000EE20A9F4E0919900F0919A000484F5852C
:10030000E02D0995E0919900F0919A000684F78517
:10031000E02D0995882319F4C8CFEE2031F28091A1
:10032000DE0084FFC0CFE0919900F0919A00008830
:10033000F189E02D82EA90E0099502C00E946402F2
:100340008091DE0084FFFACF82EA90E068E00E94AC
:100350003D0202C00E9464028091DE0084FFFACF59
:100360008AEA90E068E00E943D02EE249ECFDF938F
:10037000CF93CDB7DEB760970FB6F894DEBF0FBE50
:10038000CDBFFE01319680E090E021E030E06AB31D
:10039000A901082E02C0440F551F0A94E2F7642BEE
:1003A0006ABB5BB3642F609556235BBBF89456B36E
:1003B0005095508353B35095518378945BB3542B2D
:1003C0005BBB4AB346234ABB0196329688309105FF
:1003D000F1F6A2EBB0E0FE01319680E101900D92C2
:1003E0008150E1F760960FB6F894DEBF0FBECDBF27
:1003F000CF91DF9108951F931FB7F89417BA8FEF2D
:1004000088BB14BA85BB1ABA1BBA379A0E94B701C7
:100410001FBF1F910895009741F0DC01E2EBF0E06F
:1004200080E101900D928150E1F7A2ECB0E0E2EBA7
:10043000F0E080E101900D928150E1F70895809104
:10044000940090919500009731F0109295001092D1
:10045000940081E0089582EB90E062EC70E040E16E
:1004600050E00E94D604089580E790E090938700C2
:100470008093860082E890E008951F93162F2091C4
:10048000DE0024FF07C02091DF0038E823272093F7
:10049000DF0003C02AE52093DE00DC01812F8150BC
:1004A00090E08F519F4FE0EEF0E02D912193E817FF
:1004B000F907D9F780EE90E0612F0E9498031C5F46
:1004C0001093DE001F9108951F93CF93DF938091C7
:1004D000EF00835087FDABC09091EC002091EB00C2
:1004E0002D3209F0A2C0883009F09FC0CCE0D0E0E6
:1004F000C91BD109CD50DF4F83EC8093D3008AE52F
:10050000809396001092D2008881807621F0CE01EF
:100510000E94C20081C09A811092DC0089818823E8
:1005200031F41092DD002CED30E082E071C08530B6
:1005300019F49093F00069C0863009F050C08B81A7
:10054000813009F442C0823029F4CE010E94920029
:1005500090E042C0833061F5992349F487E990E047
:100560009093EE008093ED0090E484E035C09130EC
:1005700049F48BE990E09093EE008093ED0090E4D5
:100580008CE22AC0923049F487EC90E09093EE0020
:100590008093ED0090E488E11FC09330D9F486E6A3
:1005A00090E09093EE008093ED0090E48CE014C016
:1005B000813249F48AEA90E09093EE008093ED0056
:1005C00090E489E009C0823229F4CE010E949200B1
:1005D00090E402C090E480E09093D2001DC0883087
:1005E00069F0893019F49093F2000FC08A3049F015
:1005F0008B3059F48BE48093DF0007C022EF30E0AA
:1006000002C02CED30E081E003C02CED30E080E052
:100610003093EE002093ED009F81992321F49E8179
:10062000981708F4892F809397001092EF0080911B
:10063000960084FF4DC0809197008F3F09F448C019
:10064000182F893008F018E0811B80939700809163
:10065000D30098E889278093D300112361F180911A
:10066000ED009091EE003091D200212F215036FF05
:100670000EC030E0A9014B525F4FFC01A4EDB0E089
:1006800064916D933196A417B507D1F70CC0DC01C6
:1006900030E0A9014B525F4FE4EDF0E06D916193C2
:1006A000E417F507D9F72F5F3F4F280F391F309315
:1006B000EE002093ED0084ED90E0612F0E949803FE
:1006C0001C5F1C3019F08FEF8093970010939600F9
:1006D00084E190B3937031F48150D9F71092F00017
:1006E0001092EA00DF91CF911F91089585B7826043
:1006F00085BF8BB780648BBF8BE48093DF008AE576
:100700008093DE000895A82FB92F80E090E041E0AB
:1007100050EA609530E009C02D9182279795879522
:1007200010F084279527305EC8F36F5FA8F3089513
:10073000EADF8D939D930895CF93CFB7CF93C39561
:10074000809BE9F7809B09C0809B07C0809B05C008
:10075000809B03C0809B01C0A3C0DF93C091EC00CD
:10076000DD27CD50DF4F809B02C0DF91EBCF2F9371
:100770000F931F9300B32FEF00FB20F94F933F938C
:1007800010B34FEF012700FB21F93BE031C04E7F52
:10079000012F10B3216028C0102F4D7F2260000070
:1007A00000B329C04B7F2460012F000010B32BC081
:1007B00010B3477F28602AC04F7E00B320612CC051
:1007C0004F7D10B320622FC04F7B00B3206432C036
:1007D000422700B349934FEF0000102710FB20F988
:1007E00010B31370C9F1297F91F2012700FB21F9A1
:1007F00000B3237F89F2315058F1102710FB22F902
:1008000010B3277E79F2012700FB23F92F7C81F2B8
:1008100000B3102710FB24F92F7971F200C010B338
:10082000012700FB25F92F7359F200C000B31027F0
:1008300010FB26F9223040F200C010B3012700FB64
:1008400027F9243028F64F77206810B30000F9CF3D
:1008500010E41ABF002719C03B503195C31BD0408C
:1008600010E41ABF0881033CF9F00B34E9F0209141
:10087000EA001981110F1213EDCF4A81441F093686
:1008800041F10D3211F0013E29F70093F1003F9143
:100890004F911F910F912F91DF91CAB7C6FD4FCF96
:1008A000CF91CFBFCF9118952091F100222379F3FA
:1008B0001091EF00112369F534306AF13093EF00A5
:1008C0002093EB001091EC003BE0311B3093EC00E7
:1008D00022C00091EF000130E4F40AE54F7049F4C2
:1008E0003091960034FD19C000939600C3EDD0E01E
:1008F00018C03091DE0034FD10C00093DE00CFED53
:10090000D0E00FC02795A8F45150A9F4220F0000A1
:10091000F9CF4AE503C042ED01C0432FC4E1D0E066
:1009200032E011B31360909A11BB02B320E413E0DC
:100930005F93012756E002BB279520F4515021F424
:10094000220FF9CF012756E000003B5A02BBD0F23C
:10095000279528F4515029F4220F0000F9CF0127E0
:1009600056E0279502BB20F4515021F4220FF9CF15
:10097000012756E02991332302BB21F60C7F109109
:10098000F000110FC651D04002BB11F01093EA00E5
:1009900010E41ABF016011B31C7F402F4C7F5F91A0
:1009A00000C000C002BB11BB42BB71CFFB01DC0128
:1009B00004C08D910190801921F441505040C8F736
:0A09C000881B990B0895F894FFCFEF
:1009CA0009022200010100003209040000010300AB
:1009DA000000092101010001220000070581030826
:1009EA00000A10002700000000000000FB01B70108
:0809FA001F020B0201005AFF6D
:00000001FF
