:100000000C9470000C94A8000C948D000C948D003E
:100010000C948D000C948D000C948D000C948D002C
:100020000C948D000C948D000C948D000C948D001C
:100030000C948D000C948D000C948D000C948D000C
:100040000C948D000C948D000C948D000C948D00FC
:100050000C948D001201010100000008C016DC277D
:100060000001010203010A033100300030003000BA
:1000700005010905A10105091901294015002501FE
:1000800075019540810205091901294015002501D6
:10009000750195408102C0040309042C0377006FA9
:1000A0000072006B00620065006E00630068002E45
:1000B0000066007200650065007400630070002E29
:1000C0000063006F006D0018037500730062005339
:1000D0000069006D0049006E00700075007400003A
:1000E00011241FBECFE5D4E0DEBFCDBF10E0A0E6F7
:1000F000B0E0E4EBF9E002C005900D92A839B10739
:10010000D9F711E0A8E9B0E001C01D92A930B1070C
:10011000E1F70E9446020C94D8040C940000A82F2A
:10012000B92F80E090E041E050EA609530E009C0EE
:100130002D9182279795879510F084279527305E1B
:10014000C8F36F5FA8F30895EADF8D939D93089538
:10015000CF93CFB7CF93C395809BE9F7809B09C01E
:10016000809B07C0809B05C0809B03C0809B01C013
:10017000A3C0DF93C091EC00DD27CD50DF4F809B03
:1001800002C0DF91EBCF2F930F931F9300B32FEF9C
:1001900000FB20F94F933F9310B34FEF012700FB73
:1001A00021F93BE031C04E7F012F10B3216028C000
:1001B000102F4D7F2260000000B329C04B7F2460C8
:1001C000012F000010B32BC010B3477F28602AC056
:1001D0004F7E00B320612CC04F7D10B320622FC032
:1001E0004F7B00B3206432C0422700B349934FEFE6
:1001F0000000102710FB20F910B31370C9F1297FFC
:1002000091F2012700FB21F900B3237F89F23150DD
:1002100058F1102710FB22F910B3277E79F201273D
:1002200000FB23F92F7C81F200B3102710FB24F987
:100230002F7971F200C010B3012700FB25F92F734D
:1002400059F200C000B3102710FB26F9223040F20B
:1002500000C010B3012700FB27F9243028F64F77A0
:10026000206810B30000F9CF10E41ABF002719C0AE
:100270003B503195C31BD04010E41ABF0881033CAA
:10028000F9F00B34E9F02091EA001981110F1213F3
:10029000EDCF4A81441F093641F10D3211F0013E84
:1002A00029F70093F1003F914F911F910F912F91EA
:1002B000DF91CAB7C6FD4FCFCF91CFBFCF91189571
:1002C0002091F100222379F31091EF00112369F5B9
:1002D00034306AF13093EF002093EB001091EC0082
:1002E0003BE0311B3093EC0022C00091EF00013065
:1002F000E4F40AE54F7049F43091960034FD19C0DA
:1003000000939600C3EDD0E018C03091DE0034FDBC
:1003100010C00093DE00CFEDD0E00FC02795A8F409
:100320005150A9F4220F0000F9CF4AE503C042ED75
:1003300001C0432FC4E1D0E032E011B31360909AC2
:1003400011BB02B320E413E05F93012756E002BB28
:10035000279520F4515021F4220FF9CF012756E0C0
:1003600000003B5A02BBD0F2279528F4515029F4E3
:10037000220F0000F9CF012756E0279502BB20F499
:10038000515021F4220FF9CF012756E02991332350
:1003900002BB21F60C7F1091F000110FC651D04026
:1003A00002BB11F01093EA0010E41ABF016011B310
:1003B0001C7F402F4C7F5F9100C000C002BB11BB6F
:1003C00042BB71CF82E190E00895FC01808180768C
:1003D00041F58181863029F583818230D1F08232E6
:1003E00069F08130F1F480919C0090919D00909390
:1003F000EE008093ED0080919E0008958091990019
:1004000090919A009093EE008093ED0080919B0074
:10041000089580E690E09093EE008093ED0082E2F4
:10042000089580E00895FC0181EA90E09093EE0049
:100430008093ED0080818076803231F5818181303A
:1004400091F41092A1001092A2001092A3001092B9
:10045000A4001092A5001092A6001092A70010927E
:10046000A80080E10895823041F481EB90E0909300
:10047000EE008093ED0081E008958A3029F48381B5
:100480008093B10080E0089580E00895CF92DF92DC
:10049000EF92FF920F931F93B89A87B3897F87BB20
:1004A00088B3866088BBC09888EB9BE00197F1F722
:1004B0000E940603FC019093A00080939F0084811A
:1004C000958190939A0080939900828180939B00FC
:1004D00080859185009731F090939D0080939C00DA
:1004E000868108C084E590E090939D0080939C00F5
:1004F0000E94E20180939E0080919B00809379008E
:1005000014BA8FEF85BB88EF82BB85E081BB11BA3F
:1005100083BF8FE085BD84EC83BDE0919F00F091A7
:10052000A0000284F385E02D09950E948D03789444
:10053000FF2401E010E0CC24C39490E8D92E04C03D
:10054000FF24F39400E01E2DA8950E949A03002337
:1005500041F0E0919F00F091A0000484F585E02D2A
:10056000099508B600FE0EC0C8BEE090B100EE20AE
:1005700049F0153018F4FF24F39405C08BEFE82EF2
:10058000E10E01C0E12E08B607FE16C0D8BEFF205E
:10059000A9F4E0919F00F091A0000484F585E02D7E
:1005A0000995E0919F00F091A0000684F785E02D69
:1005B0000995882319F4C6CFFF2021F28091DE002F
:1005C00084FFBECFE0919F00F091A0000088F189E8
:1005D000E02D81EA90E0099502C00E949A03809183
:1005E000DE0084FFFACF81EA90E068E00E94A9046F
:1005F00002C00E949A038091DE0084FFFACF89EA4C
:1006000090E068E00E94A904FF249CCF80E790E07E
:10061000909387008093860082E890E00895009789
:1006200041F0DC01E2EBF0E080E101900D928150BD
:10063000E1F7A2ECB0E0E2EBF0E080E101900D9296
:100640008150E1F70895DF93CF93CDB7DEB7609780
:100650000FB6F894DEBF0FBECDBFFE01319640E06D
:1006600050E061E070E08AB39B01042E02C0220FCB
:10067000331F0A94E2F7822B8ABB8BB3922F90959B
:1006800089238BBBF89486B38095808383B3809550
:10069000818378948BB3282B2BBB8AB398239ABB86
:1006A0004F5F5F4F329648305105E9F6A2EBB0E05C
:1006B000FE01319680E101900D928150E1F7609644
:1006C0000FB6F894DEBF0FBECDBFCF91DF91089576
:1006D0001F931FB7F89417BA8FEF88BB14BA85BB66
:1006E0001ABA1BBA379A0E9423031FBF1F9108959D
:1006F0008091940090919500892B31F01092950093
:100700001092940081E0089582EB90E062EC70E03A
:1007100040E150E00E94CB04089585B7826085BF18
:100720008BB780648BBF8BE48093DF008AE5809376
:10073000DE0008951F93CF93DF939091EF009350C5
:1007400097FDABC02091EC008091EB008D3209F059
:10075000A2C0983009F09FC0CCE0D0E0C21BD10904
:10076000CD50DF4F83EC8093D3008AE580939600D1
:100770001092D2008881807629F0CE010E94130267
:10078000282F80C09A811092DC008981882321F46F
:100790001092DD0022E070C0853019F49093F000D3
:1007A0006AC0863009F053C08B81813009F444C09F
:1007B000823031F4CE010E94E501282F80E044C050
:1007C000833069F58A81882349F487E990E0909322
:1007D000EE008093ED0080E424E036C0813049F4DF
:1007E0008BE990E09093EE008093ED0080E42CE2A2
:1007F0002BC0823049F487EC90E09093EE00809318
:10080000ED0080E428E120C08330E1F486E690E04A
:100810009093EE008093ED0080E42CE015C08132CF
:1008200049F48AEA90E09093EE008093ED0080E432
:1008300029E00AC0823231F4CE010E94E501282F5E
:1008400080E402C080E420E08093D2001BC08830A6
:1008500021F421E082EF90E011C0893019F49093E7
:10086000F20009C08A3011F421E006C08B3019F47F
:100870008BE48093DF0020E08CED90E09093EE001D
:100880008093ED008F81882321F48E81821708F4F4
:10089000282F209397001092EF008091960084FFFC
:1008A0004AC0809197008F3F09F445C0182F8930C6
:1008B00008F018E0811B809397008091D30098E89E
:1008C00089278093D300112341F12091ED003091CD
:1008D000EE008091D20086FF0DC0A4EDB0E080E074
:1008E00090E0F901E80FF91FE491ED9301961817D4
:1008F000C1F708C0912FD901E4EDF0E08D9181930B
:100900009150E1F71150812F90E01F5F0196820F07
:10091000931F9093EE008093ED0084ED90E0612FA3
:100920000E94A400612F6C5F6C3019F08FEF8093F0
:1009300097006093960094E180B3837031F49150F6
:10094000D9F71092F0001092EA00DF91CF911F9139
:1009500008951F93DC01162F8091DE0084FF07C0ED
:100960008091DF0098E889278093DF0003C08AE543
:100970008093DE00912FE0EEF0E08D918193915015
:10098000E1F780EE90E0612F0E94A4001C5F1093BD
:10099000DE001F910895FB01DC0104C08D910190E0
:1009A000801921F441505040C8F7881B990B0895D5
:0409B000F894FFCFE9
:1009B40009022200010100003209040000010300C1
:1009C400000009210101000122000007058103083C
:1009D400000A100027000000000000006803230341
:0809E40078030F0301005AFF24
:00000001FF
