:100000000C9474000C946C020C9491000C9491006C
:100010000C9491000C9491000C9491000C9491001C
:100020000C9491000C9491000C9491000C9491000C
:100030000C9491000C9491000C9491000C949100FC
:100040000C9491000C9491000C9491000C949100EC
:100050000C94910005010905A10105091901294028
:1000600015002501750195408102C0040309042C87
:100070000377006F0072006B00620065006E006322
:100080000068002E00660072006500650074006361
:100090000070002E0063006F006D00180375007380
:1000A000006200530069006D0049006E0070007529
:1000B0000074001201100100000008C016DC2700C7
:1000C000010102000109022200010100803209043D
:1000D00000000103000000092101010001221700B6
:1000E000070581030800640011241FBECFE5D4E09A
:1000F000DEBFCDBF10E0A0E6B0E0E0E5F7E002C073
:1001000005900D92A236B107D9F710E0A2E6B0E053
:1001100001C01D92A23BB107E1F70E94FF000C94C1
:10012000A6030C94000080916200882371F0A3E67E
:10013000B0E0ECE6F0E0F894819178948D9380E063
:10014000E437F807C1F71092620083E690E0089563
:10015000FC0180818076803259F48181813051F4B4
:100160000E949300909397008093960088E00895F2
:1001700080E0089580E008958091870084FF05C0A5
:100180000E94930068E00E940F01089517BA8FEF54
:1001900088BB14BA85BB1ABA1BBA0895ECE6F0E026
:1001A00080E090E021E030E06AB3A901082E02C0AF
:1001B000440F551F0A94E2F7642B6ABB5BB3642FAC
:1001C000609556235BBBF89456B35095508353B358
:1001D0005095518378945BB3542B5BBB4AB3462351
:1001E0004ABB0196329688309105F1F681E0809302
:1001F000620008958FE081BD0895A89508958FE06D
:1002000081BD0E9446020E94C60088987894A895F5
:100210000E94CE000E94BC000E943601F8CF1F93BE
:10022000162F2091870024FF07C02091880038E80E
:1002300023272093880003C02AE520938700DC0150
:10024000812F815090E086579F4FE9E8F0E02D9193
:100250002193E817F907D9F789E890E0612F0E9408
:1002600068021C5F109387001F9108951F93CF931E
:10027000DF9380919800835087FDA9C090919500ED
:10028000209194002D3209F0A0C0883009F09DC063
:10029000CCE0D0E0C91BD109C456DF4F83EC80937A
:1002A0007C008AE58093600010926B0088818076E4
:1002B00021F0CE010E94A8007FC09A811092850093
:1002C0008981882331F41092860025E830E082E0AD
:1002D0006FC0853019F49093990067C0863009F09B
:1002E0004EC08B81813041F483EB90E09093970076
:1002F0008093960082E13FC0823041F485EC90E02B
:10030000909397008093960082E235C08330F1F499
:10031000992341F48BE690E09093970080939600A8
:1003200084E029C0913041F48FE690E090939700EB
:10033000809396008CE21FC09230E1F48BE990E04C
:10034000909397008093960088E115C0813241F424
:1003500087ED90E0909397008093960089E00BC022
:10036000823241F484E590E0909397008093960068
:1003700087E101C080E090E490936B001DC088305D
:1003800069F0893019F490939B000FC08A3049F0CE
:100390008B3059F48BE48093880007C02BE930E060
:1003A00002C025E830E081E003C025E830E080E0CD
:1003B00030939700209396009F81992321F49E818A
:1003C000981708F4892F809361001092980080910B
:1003D000600084FF4DC0809161008F3F09F448C0E8
:1003E000182F893008F018E0811B809361008091FC
:1003F0007C0098E8892780937C00112361F180912B
:1004000096009091970030916B00212F215036FF7C
:100410000EC030E0A90142585F4FFC01ADE7B0E0EB
:1004200064916D933196A417B507D1F70CC0DC0128
:1004300030E0A90142585F4FEDE7F0E06D91619324
:10044000E417F507D9F72F5F3F4F280F391F309377
:100450009700209396008DE790E0612F0E9468023C
:100460001C5F1C3019F08FEF8093610010936000C7
:1004700084E190B3937031F48150D9F710929900D0
:1004800010929300DF91CF911F91089585B78260FC
:1004900085BF8BB780648BBF8BE4809388008AE52F
:1004A000809387000895A82FB92F80E090E041E065
:1004B00050EA609530E009C02D9182279795879585
:1004C00010F084279527305EC8F36F5FA8F3089576
:1004D000EADF8D939D930895CF93CFB7CF93C395C4
:1004E000809BE9F7809B09C0809B07C0809B05C06B
:1004F000809B03C0809B01C0A3C0DF93C091950087
:10050000DD27C456DF4F809B02C0DF91EBCF2F93D6
:100510000F931F9300B32FEF00FB20F94F933F93EE
:1005200010B34FEF012700FB21F93BE031C04E7FB4
:10053000012F10B3216028C0102F4D7F22600000D2
:1005400000B329C04B7F2460012F000010B32BC0E3
:1005500010B3477F28602AC04F7E00B320612CC0B3
:100560004F7D10B320622FC04F7B00B3206432C098
:10057000422700B349934FEF0000102710FB20F9EA
:1005800010B31370C9F1297F91F2012700FB21F903
:1005900000B3237F89F2315058F1102710FB22F964
:1005A00010B3277E79F2012700FB23F92F7C81F21B
:1005B00000B3102710FB24F92F7971F200C010B39B
:1005C000012700FB25F92F7359F200C000B3102753
:1005D00010FB26F9223040F200C010B3012700FBC7
:1005E00027F9243028F64F77206810B30000F9CFA0
:1005F00010E41ABF002719C03B503195C31BD040EF
:1006000010E41ABF0881033CF9F00B34E9F02091A3
:1006100093001981110F1213EDCF4A81441F09363F
:1006200041F10D3211F0013E29F700939A003F91FC
:100630004F911F910F912F91DF91CAB7C6FD4FCFF8
:10064000CF91CFBFCF91189520919A00222379F3B3
:1006500010919800112369F534306AF130939800B5
:1006600020939400109195003BE0311B309395004E
:1006700022C0009198000130E4F40AE54F7049F47B
:100680003091600034FD19C000936000CCE7D0E0E9
:1006900018C03091870034FD10C000938700C8E86F
:1006A000D0E00FC02795A8F45150A9F4220F000004
:1006B000F9CF4AE503C042ED01C0432FC4E1D0E0C9
:1006C00032E011B31360909A11BB02B320E413E03F
:1006D0005F93012756E002BB279520F4515021F487
:1006E000220FF9CF012756E000003B5A02BBD0F29F
:1006F000279528F4515029F4220F0000F9CF012743
:1007000056E0279502BB20F4515021F4220FF9CF77
:10071000012756E02991332302BB21F60C7F10916B
:100720009900110FC651D04002BB11F010939300F5
:1007300010E41ABF016011B31C7F402F4C7F5F9102
:1007400000C000C002BB11BB42BB71CFF894FFCF09
:020750005AFF4E
:00000001FF
