:100000000C9470000C94A8000C948D000C948D003E
:100010000C948D000C948D000C948D000C948D002C
:100020000C948D000C948D000C948D000C948D001C
:100030000C948D000C948D000C948D000C948D000C
:100040000C948D000C948D000C948D000C948D00FC
:100050000C948D001201010100000008C016DC277D
:100060000001010203010A033100300030003000BA
:1000700005010905A10105091901294015002501FE
:1000800075019540810205091901294015002501D6
:10009000750195408102C01803750073006200531A
:1000A0000069006D0049006E007000750074002C3E
:1000B0000377006F0072006B00620065006E0063E2
:1000C0000068002E00660072006500650074006321
:1000D0000070002E0063006F006D0004030904002F
:1000E00011241FBECFE5D4E0DEBFCDBF10E0A0E6F7
:1000F000B0E0E4E9F9E002C005900D92A839B1073B
:10010000D9F721E0A8E9B0E001C01D92A930B207FB
:10011000E1F70E9445020C94C8040C940000A82F3B
:10012000B92F80E090E041E050EA609530E009C0EE
:100130002D9182279795879510F084279527305E1B
:10014000C8F36F5FA8F30895EADF8D939D93089538
:10015000CF93CFB7CF93C395809BE9F7809B09C01E
:10016000809B07C0809B05C0809B03C0809B01C013
:10017000A3C0DF93C091EC00DD27CD50DF4F809B03
:1001800002C0DF91EBCF2F930F931F9300B32FEF9C
:1001900000FB20F94F933F9310B34FEF012700FB73
:1001A00021F93BE031C04E7F012F10B3216028C000
:1001B000102F4D7F2260000000B329C04B7F2460C8
:1001C000012F000010B32BC010B3477F28602AC056
:1001D0004F7E00B320612CC04F7D10B320622FC032
:1001E0004F7B00B3206432C0422700B349934FEFE6
:1001F0000000102710FB20F910B31370C9F1297FFC
:1002000091F2012700FB21F900B3237F89F23150DD
:1002100058F1102710FB22F910B3277E79F201273D
:1002200000FB23F92F7C81F200B3102710FB24F987
:100230002F7971F200C010B3012700FB25F92F734D
:1002400059F200C000B3102710FB26F9223040F20B
:1002500000C010B3012700FB27F9243028F64F77A0
:10026000206810B30000F9CF10E41ABF002719C0AE
:100270003B503195C31BD04010E41ABF0881033CAA
:10028000F9F00B34E9F02091EA001981110F1213F3
:10029000EDCF4A81441F093641F10D3211F0013E84
:1002A00029F70093F1003F914F911F910F912F91EA
:1002B000DF91CAB7C6FD4FCFCF91CFBFCF91189571
:1002C0002091F100222379F31091EF00112369F5B9
:1002D00034306AF13093EF002093EB001091EC0082
:1002E0003BE0311B3093EC0022C00091EF00013065
:1002F000E4F40AE54F7049F43091970034FD19C0D9
:1003000000939700C3EDD0E018C03091DE0034FDBB
:1003100010C00093DE00CFEDD0E00FC02795A8F409
:100320005150A9F4220F0000F9CF4AE503C042ED75
:1003300001C0432FC4E1D0E032E011B31360909AC2
:1003400011BB02B320E413E05F93012756E002BB28
:10035000279520F4515021F4220FF9CF012756E0C0
:1003600000003B5A02BBD0F2279528F4515029F4E3
:10037000220F0000F9CF012756E0279502BB20F499
:10038000515021F4220FF9CF012756E02991332350
:1003900002BB21F60C7F1091F000110FC651D04026
:1003A00002BB11F01093EA0010E41ABF016011B310
:1003B0001C7F402F4C7F5F9100C000C002BB11BB6F
:1003C00042BB71CF82E190E00895FC019081892FBA
:1003D000807641F59181963031F593819230D1F05C
:1003E000923269F09130F9F48091AD009091AE00B5
:1003F0009093EE008093ED008091AC000895809181
:10040000B0009091B1009093EE008093ED00809148
:10041000AF00089580E690E09093EE008093ED00A9
:1004200082E2089580E00895FC0189E990E09093CC
:10043000EE008093ED0080818076803221F581810D
:10044000813091F41092990010929A0010929B00C2
:1004500010929C0010929D0010929E0010929F009E
:100460001092A00080E10895823041F488E990E084
:100470009093EE008093ED0081E008958A3019F4A6
:1004800083818093980080E00895B89A87B3897F2C
:1004900087BB88B3866088BBC09887EB9BE00197D9
:1004A000F1F700C000000E947903FC019093AA00BC
:1004B0008093A900848195819093B1008093B000CE
:1004C00082818093AF0080859185009731F0909371
:1004D000AE008093AD00868108C084E590E09093E3
:1004E000AE008093AD000E94E2018093AC00809149
:1004F000AF008093790014BA8FEF85BB88EF82BB81
:1005000085E081BB11BA83BF8FE085BD84EC83BDDC
:10051000E091A900F091AA000284F385E02D0995ED
:100520000E94AE047894D0E011E0C0E001E080E8E1
:10053000F82EA8950E94A503112341F0E091A9008F
:10054000F091AA000484F585E02D099508B600FE17
:100550000BC008BF80919800882331F0D53010F08F
:10056000D55002C0D82FC1E008B607FE18C0F8BEAB
:10057000C11117C0E091A900F091AA000484F5858B
:10058000E02D0995E091A900F091AA000684F78575
:10059000E02D0995811105C0C0E010E0CACFCC2341
:1005A000D9F38091DE0084FF23C0E091A900F0918F
:1005B000AA000088F189E02D89E990E009958091F1
:1005C000DE0084FD03C00E94A503F9CF68E089E93D
:1005D00090E00E9482038091DE0084FD03C00E94AF
:1005E000A503F9CF68E081EA90E00E948203D4CFAE
:1005F000C1E0D3CFCF93DF93CDB7DEB760970FB60F
:10060000F894DEBF0FBECDBFDE01119620E030E0D2
:10061000FD0161E070E04AB3CB01022E01C0880FFA
:100620000A94EAF7942F982B9ABB4BB3982F909586
:1006300049234BBBF89446B340954C9343B3409544
:1006400011964C93119778944BB3842B8BBB8AB340
:1006500098239ABB2F5F3F4F129628303105D9F669
:1006600080E1A2ECB0E001900D928A95E1F76096EE
:100670000FB6F894DEBF0FBECDBFDF91CF910895C6
:10068000CF93CFB7F89417BA8FEF88BB14BA85BB56
:100690001ABA1BBA379A0E94FA02CFBFCF910895B7
:1006A000DC01892B39F090E1E2ECF0E001900D9251
:1006B0009A95E1F780E1E2ECF0E0A2EBB0E0019086
:1006C0000D928A95E1F708958091820090918300C0
:1006D000892B31F0109283001092820081E00895FE
:1006E00040E150E062EB70E082EC90E00E94BB04DD
:1006F000089580E790E0909389008093880084E8D3
:1007000090E00895CF93C62F2091DE0024FF0BC008
:100710003091DF0028E823272093DF00FC01A0EEC2
:10072000B0E08C2F04C02AE52093DE00F7CF919132
:100730009D938150E1F76C2F80EE90E00E94A40021
:10074000CC5FC093DE00CF910895CF93DF9380916B
:10075000EF00835087FDABC09091EB009D3209F014
:10076000A4C0883009F0A1C08091EC00CCE0D0E0BA
:10077000C81BD109CD50DF4F83EC8093D3008AE5AD
:10078000809397001092D2008881807621F0CE016C
:100790000E94140281C09A811092DC00898181112B
:1007A00006C01092DD002CED30E082E071C0853093
:1007B00019F49093F00069C0863009F050C08B8125
:1007C000813009F442C0823029F4CE010E94E50153
:1007D00090E042C0833061F5911109C08BED90E04B
:1007E0009093EE008093ED0090E484E035C091306A
:1007F00049F48FEA90E09093EE008093ED0090E44E
:100800008CE22AC0923049F487E990E09093EE00A0
:100810008093ED0090E488E11FC09330D9F486E620
:1008200090E09093EE008093ED0090E48CE014C093
:10083000813249F48DEB90E09093EE008093ED00CF
:1008400090E489E009C0823229F4CE010E94E501DA
:1008500090E402C090E480E09093D2001DC0883004
:1008600069F0893019F49093F2000FC08A3049F092
:100870008B3059F48BE48093DF0007C022EF30E027
:1008800002C02CED30E081E003C02CED30E080E0D0
:100890003093EE002093ED009F81911104C09E8162
:1008A000981708F4892F809396001092EF0080919A
:1008B000970084FF46C0809196008F3F09F441C0A5
:1008C000C82F893008F0C8E08C1B80939600909167
:1008D000D30088E889278093D300CC2329F1809125
:1008E000ED009091EE002091D20026FF0AC0A4ED09
:1008F000B0E0FC012C2F34913D9331962150D9F773
:1009000008C0DC01E4EDF0E02C2F3D913193215043
:10091000E1F72FEF2C0F30E02F5F3F4F820F931F37
:100920009093EE008093ED006C2F84ED90E00E9498
:10093000A400CC5FCC3019F08FEF80939600C09369
:10094000970084E190B3937031F48150D9F71092FD
:10095000F0001092EA00DF91CF91089585B7826090
:1009600085BF8BB780648BBFEEEDF0E08BE48183B5
:100970008AE580830895FB01DC0104C08D9101901C
:10098000801921F441505040C8F7881B990B0895F5
:04099000F894FFCF09
:1009940009022200010100003209040000010300E1
:1009A400000009210101000122000007058103085C
:1009B400000A0100100027000000000000004003AE
:0809C400FA0264035003FF5A1C
:00000001FF
